:020000041000EA
:1000000000B5324B212058609868022188439860DF
:10001000D860186158612E4B002199600221596106
:100020000121F02299502B49196001219960352056
:1000300000F044F80222904214D00621196600F024
:1000400034F8196E01211966002018661A6600F04E
:100050002CF8196E196E196E052000F02FF8012189
:100060000842F9D1002199601B49196000215960AB
:100070001A491B48016001219960EB211966A021F2
:10008000196600F012F800219960164914480160C1
:100090000121996001BC002800D000471248134993
:1000A000086003C880F30888084703B5996A0420EC
:1000B0000142FBD001200142F8D103BD02B5186610
:1000C0001866FFF7F2FF186E186E02BD00000240BE
:1000D000000000180000070000035F00212200005C
:1000E000F4000018222000A00001001008ED00E03C
:1000F00000000000000000000000000074B24E7A12
:1001000000200420F7010010C3010010C5010010F9
:10011000C1010010C1010010C1010010C101001097
:10012000C1010010C1010010C1010010C701001081
:10013000C1010010C1010010C9010010CB01001065
:10014000CD010010CD010010CD010010CD01001037
:10015000CD010010CD010010CD010010CD01001027
:10016000CD010010CD010010CD010010CD01001017
:10017000CD010010CD010010CD010010CD01001007
:10018000CD010010CD010010CD010010CD010010F7
:10019000CD010010CD010010CD010010CD010010E7
:1001A000CD010010CD010010CD010010CD010010D7
:1001B000CD010010CD010010CD010010CD010010C7
:1001C00000BE00BE00BE00BE00BE00BE00F051F882
:1001D000103800BEF2EB8871E0020010FC02001043
:1001E0003402001090A31AE700202449086006C8D2
:1001F00081F30888104722480068002835D10DA4F3
:100200000ECC002902D000F012F8F9E71D491E4A71
:10021000002000E001C19142FCD11C4988471C49E3
:1002200088471C49884700BEFDE701C901C29A42C0
:10023000FBD37047FC020010C00000200022002009
:100240003C24001000220020102600204C28001022
:1002500000000420000004204C280010001004209E
:10026000001004200000000070470B4800F018F850
:100270000047EFF30580C0B27047000008ED00E0D2
:10028000000000D010260020E82A0020751400206D
:10029000FD0400204115002057560000000000001A
:1002A00001B40248844601BC604700BF45190020E4
:1002B00006005250ABB36053F424002006005250A5
:1002C000861C0302FF240020060052505422A29DE7
:1002D0000A25002005005250DE65F4684C28001005
:1002E0001625002022250020B00200102E25002017
:0C02F000BC020010C8020010D402001074
:1002FC00F8B5C04606480749091A8B10C90FC9182A
:10030C0010B5491003D0044B002B00D0984710BDFA
:10031C00102600201026002000000000054B10B510
:10032C00002B03D00449054800E000BFFFF7E2FFB3
:10033C0010BDC046000000005C28002000220020F8
:10034C00004870475049434F43688020C0008342A7
:10035C0004D8002008600248136070470148FCE78D
:10036C004F4B4F4B4552522109C80343180010B54F
:10037C0003242040234203D108601060014810BDC3
:10038C000148FCE74F4B4F4B4552522110B5FFF73C
:10039C00EBFF10BD30B503680B4CA34211D981247F
:1003AC00406864051D18A5420BD20343DBB2002B39
:1003BC0007D18024E400A04203D8086003481360EE
:1003CC0030BD0348FCE7C046FF3F00104F4B4F4B7E
:1003DC004552522101210C4A13688B4313600123AF
:1003EC000A4A5B42D367C022094952008B50094B21
:1003FC00094A0A491A6003685A688B601B6883F3C0
:10040C0008881047FEE7C04610E000E004E100E079
:10041C0000E100E000E00040BFEDFBFF00ED00E07C
:10042C00074B08481360FE235B03536080235B017A
:10043C00936080235B00D3608023DB0013617047E3
:10044C00004000104F4B4F4B002302480B601360D1
:10045C007047C0464F4B4F4B80210A4B0268C90571
:10046C0010B51960084B002A09D0084A1A62084ACC
:10047C005A6200221100100001F01EFBFEE71A6206
:10048C00F6E7C04600B00540008005400DF005B110
:10049C00F20FFA4E03680B4A10B5934210D9812221
:1004AC0041685205581890420AD21A000A431205A4
:1004BC0006D1F0221206981802F030F8024810BD4E
:1004CC000248FCE7FF2F00104F4B4F4B4552522177
:1004DC00020010B506CA180001F044FE004810BD19
:1004EC004F4B4F4B102210B5054B4118884200D191
:1004FC0010BD9C691442FCD11C6804700130F5E7F6
:10050C0000800340024AC30202481340184370475C
:10051C0031F81FFF19801F00F0B5060085B00120CF
:10052C00019101F001FF0400FFF7ECFF2C2398432D
:10053C001D4BA0220343009301218723D205DB002E
:10054C004942D1501949A3015F18802180208901AB
:10055C003943000408601E20610001400330084349
:10056C0013499B1850505058844680206546C00053
:10057C002843505001981E60850803A858600098C5
:10058C009D60D86080235B04386806001E401842CA
:10059C00FAD18723DB00D5582000565001F0BAFE63
:1005AC00E84305B0F0BDC0461800800010000050B4
:1005BC003404000070B50568040041682800FFF79A
:1005CC00ABFFA268030000209A420ED180232A6858
:1005DC009B059A4209D36A6823689A4205D36168DD
:1005EC005B189A4201D80130104070BD10B5040060
:1005FC00C0B0F422002103A801F0AEFDA16823686D
:10060C0002910321626800930192DBB20A4013430A
:10061C0002D00F4840B010BD6846FFF7CBFF002852
:10062C00F7D08021C0204901800101F077FF8022A2
:10063C00C02069465200800101F0ACFF8022684660
:10064C000449520001F09AFE0028E2D10248E1E789
:10065C0045525221003000104F4B4F4BF0231B06DC
:10066C0070B560C81400E818320001F093FF310037
:10067C002800FFF751FF2060004870BD4F4B4F4BD7
:10068C0010B503C81400FFF747FF2060004810BDE9
:10069C004F4B4F4BF0B5036885B0476801201600EF
:1006AC00009301F041FE0400FFF72CFF2C2398432C
:1006BC0003001A48A025184387230022ED05DB0010
:1006CC000190EA50164AA3019918802280209201C9
:1006DC000A43000410601E2062001040E222FF3228
:1006EC001043104A5B19A8500098BF08186003A863
:1006FC00586001989F60D86080235B0408680700ED
:10070C001F401842FAD12000AF5001F003FE87239E
:10071C00DB00EB580448336005B0F0BD18008000D6
:10072C0010000050340400004F4B4F4BF0B58DB00F
:10073C0000AF192000F056F9D024802324069B0426
:10074C0063620F20636100F04DF9002201210F203C
:10075C0000F036F98023E1217E4D1B02A362490291
:10076C00280000F043FF0221082000F013F90221B9
:10077C00092000F00FF9C0222B6B12021340764AAD
:10078C001360764B9D446B46BB6000245CE0744B5D
:10079C0080227B61D02392041B0672496D485A61FA
:1007AC00002400F06DFF2600A04202D17B68187077
:1007BC00EBE70823DB18DB199B19012118003B60C0
:1007CC00FFF790FED02380221B069204DA613B686F
:1007DC0008211A780C235B18DB199B5D9A4204D113
:1007EC000134042C03D02600E3E70024FBE70123AB
:1007FC007A681370022427E00823DB180421D81927
:10080C00FFF770FEF6E7002214203969564C0300FE
:10081C0053431B191E68B14210D15968B868FB606C
:10082C009B68043089009B004218C318B861FA61B8
:10083C0038627B620324FFF755FE05E001320A2A79
:10084C00E5D14A4B7B610524494B7B601B78002B1F
:10085C001DD1484E3000FFF7ADFE002817D0012007
:10086C00454933680A6882430A600122434952426F
:10087C00CA67C021424849004250424A424911606D
:10088C0042495A688B601B6883F308881047601EC6
:10089C00042800D97BE701F065FDAFB6031D4800C5
:1008AC00FB68DB68002B12D00820242220211218B0
:1008BC000918D219B869C91998472C4B7861984214
:1008CC00C1D0B96AF869FFF70DFE0424BCE7BB621E
:1008DC00FB62F6E7FC682669002E1CD07B6A3A6A3C
:1008EC00F969B869B047214B78619842ABD00821BF
:1008FC000C235B180422D919B868A668FC6A01F0AD
:10090C0031FC2022BB680136B6001C19A4199C428C
:10091C0004D1012498E71E4B7B61E8E7A9691142D9
:10092C00FCD1197801332960F1E708210C235B18FD
:10093C000422D919B86801F015FC2020BB681A1DD7
:10094C00A9690142FCD11978013329609342F7D18E
:10095C001BE7C0460080034030900340E8FBFFFFDC
:10096C0053594E43404B4C00D82300204552522142
:10097C005C2500200030001010E000E004E100E0F5
:10098C0000E100E000E00040BFEDFBFF00ED00E007
:10099C004F4B4F4B084B8200D218402310B51468B4
:1009AC00C0006340C02423408024640122431360B0
:1009BC00024BC018416010BD04C001400040014012
:1009CC00074B8000C0180368C90092000A435A40C4
:1009DC000C231A4080235B0103431A607047C04606
:1009EC0004C001400123D022834010B5120693624B
:1009FC0005219361FFF7CEFF10BD0000EFF31080CF
:100A0C0072B6034A1368002BFCD0BFF35F8F70479C
:100A1C002C0100D0BFF35F8F0022024B1A6080F3D1
:100A2C00108870472C0100D00722CB08C35C012032
:100A3C00114088401840431E9841C0B27047F8B529
:100A4C0005000C001700FFF7D9FF21000600280055
:100A5C00FFF7EAFF002803D02100380000F08AFEDF
:100A6C000723E2081C40063BA340A95C30000B4363
:100A7C00AB54FFF7CFFFF8BDF7B505000E0014001F
:100A8C001F00FFF7BBFF0190BC4202D90124644256
:100A9C000DE021002800FFF7C7FF002811D1072225
:100AAC00012322409340E1086A5C13436B54019884
:100ABC00FFF7B0FF002C06DA002E04D0089800F0E7
:100ACC0059FE0134E0E72000FEBD70B505000C00B6
:100ADC00FFF794FF07230122E1081C40A2406B5C46
:100AEC0093436B54FFF796FF70BD0000024B1868E0
:100AFC008007C00F7047C04600C006400021044B61
:100B0C00044ABFF35F8F02C39342FAD17047C046C9
:100B1C00000100D0800100D0044A1078431CDBB2E5
:100B2C00172B00D9102313707047C0465D25002089
:100B3C00074B10309B688000C150BFF35F8FBFF331
:100B4C005F8F0021034B196082F310887047C046F9
:100B5C0000ED00E0240100D001228240034B1B6811
:100B6C0013405A1E9341D8B27047C04600E100E0D2
:100B7C00002904D0034B1860034B18607047034BDB
:100B8C00FBE7C04680E200E000E100E080E100E02D
:100B9C000123834010B51800FFF7EAFF10BD0000D9
:100BAC00024B10309B688000C058704700ED00E08D
:100BBC0070B504000D00EFF3108672B60A4A136884
:100BCC00002BFCD0BFF35F8F2000FFF7E9FF074B32
:100BDC00984203D0A84201D000F0E2FD3200290077
:100BEC002000FFF7A5FF70BD240100D0CD0100103F
:100BFC00F0B585B005000091EFF31083019372B648
:100C0C004A4A1368002BFCD0BFF35F8F2F00484B70
:100C1C0010379B68BA00D458464B9C426AD0009A55
:100C2C00944200D17FE0444BE31A2F2B62D828006A
:100C3C00FFF792FF002102902800FFF7A9FFBFF3F6
:100C4C005F8F01F0EDFB061E03D0874201D000F050
:100C5C00A7FD012322009A4313000C220021944685
:100C6C00354A039206229868009F9A56B84214D1CE
:100C7C00002A1ADA002E49D1002945D0FF228A71A8
:100C8C002E4A8A802E482C4902789A712D4A5B1A7A
:100C9C005B415A43120D027028E0002A26DB6146A4
:100CAC004A431900039B9B18DCE70C205043224954
:100CBC000E18B7689F60F779DF710627F7579F7199
:100CCC00002F1EDBB688C91A76053615801909184F
:100CDC00E0200905490D0002014399800C21514384
:100CEC00154B5B18164908780A7098712800029900
:100CFC00FFF74EFF21002800019AFFF719FF05B0FE
:100D0C00F0BDBD210902E8E70A4CBBE70E4A0F49CA
:100D1C00D21A083A5002400D014399800C495208EE
:100D2C000A43DA80E2E71C00E4E7C046240100D065
:100D3C0000ED00E0CD0100106025002000BDFFFF9C
:100D4C00E42A0020AAAA00009A25002000F0FFFF48
:100D5C0000F8FFFFF8B50123034304001E0001F067
:100D6C005FFBEFF3108772B61C4B1B68002BFBD09C
:100D7C00BFF35F8F1A4922001A4B521A5241534348
:100D8C001B0D5BB29C46184B9A688300D258080026
:100D9C0015000022B54214D1134A14499268D1505F
:100DAC00134B1A78A27162461A70BFF35F8F00233F
:100DBC000A4A136087F31088F8BD01320C30042AFC
:100DCC00EED00623C3566345F7D10C235343FF22C1
:100DDC00CB189A71074A9A80E2E7C046240100D0EA
:100DEC0060250020AAAA000000ED00E0CD01001053
:100DFC00E42A002000BDFFFF054B064A1360064A9B
:100E0C00136053609360D3601361536193617047B7
:100E1C008080808000E400E004E400E0024BC9180C
:100E2C00890001607047C0464000003410B50A4C80
:100E3C0080680B19121912011B01C3188018446821
:100E4C00596801228C4205D803D101681B6899426C
:100E5C0000D80022D0B210BDFFFFFF0F70B50C0000
:100E6C000500080000F0C0F9200000F081FA200015
:100E7C00064900F0CFF9FFF74FFE054B2C75C01853
:100E8C00044B8000A4006860E55070BD550D002037
:100E9C004000003474280020032330B51C00534359
:100EAC004C43033BC318033C9970015D05190029A1
:100EBC0000D059702A7030BDF0B585B002930CABE0
:100ECC001C780DAB1B780700056801920393002C6E
:100EDC0010D1AC7B002C49D0032262432B68033A1F
:100EEC009B185A78AA73002A00D1EA7300229A70D0
:100EFC005A701A70224BE218BB6812019B18019AA7
:100F0C001A60029A5A600A9A9A600B9ADA60032263
:100F1C0062432B68033A9B1800229A705A701A701D
:100F2C006E7B964201D16C730EE0220031006B682F
:100F3C00A868984700281CD0220031002868FFF7C9
:100F4C00ABFF6E73B44211D1387D019A029B00F055
:100F5C00AFF9051E06D0039B002B03D12100386886
:100F6C0000F0C5FA0E9B002B00D01D70200005B0C0
:100F7C00F0BD320021002868FFF78EFFD3E7C04692
:100F8C00FFFFFF0F0023F0B58FB00B935D4B82007A
:100F9C00D4580C9000F034F902000B006068EFF3A9
:100FAC001081089172B601680029FCD0BFF35F8FE5
:100FBC0021688C46497B0791002974D05248A5685A
:100FCC00091809016D182E686F6830003900801AF5
:100FDC00994100295DDC01D100285AD100216046DD
:100FEC0000F07BFA2E686F68AB68079A0A93E36887
:100FFC00ED689B18013B1B780B931B0203430020ED
:10100C0023616368BFF35F8F00221A60089B83F330
:10101C0010880A9B93426FD00B9B29001802079BE8
:10102C0018430A9B9847089009916268EFF3108364
:10103C000D9372B61368002BFCD0BFF35F8F099B26
:10104C00002B36DA2369002B43D00898099932001B
:10105C003B00121A8B419F4202D804D1964202D90E
:10106C0001225242D31700210491013103910799B7
:10107C00200002910A9901950091FFF71DFF0022B3
:10108C0063682261BFF35F8F1A600D9B83F3108836
:10109C0080E7002532003B000C9800F009F900268F
:1010AC0000270A95ADE7079D0026002728000A9522
:1010BC00A7E7089B099A13430BD02369002B08D090
:1010CC0000F09EF8089A099B06000F0092197B41CC
:1010DC00C1E72268D07B002806D003214143136866
:1010EC005B180799033B5970079BD373E168013B6D
:1010FC00CA5C0132CA54C2E7002800D04AE70FB0DC
:10110C00F0BDC04674280020FFFFFF0F10B5094C3E
:10111C006368002B09D1102120682300064A00F0D7
:10112C008CF903212000FFF799FE0A210348FFF7F1
:10113C0075FE10BDA8250020FD0B0020882A00207C
:10114C00F7B5EFF305823F231A4010009446103890
:10115C00EFF3108172B61E4B1A68002AFCD0BFF355
:10116C005F8F0124250085401A4A55631A4A019263
:10117C0012781700C7403E002640274221D0154C5C
:10118C008600676A154C3459A7420DD3AA43144CF8
:10119C00019D34592A70BFF35F8F00221A6081F3CE
:1011AC001088944211D1F7BD62460E489200121875
:1011BC0010681060BFF35F8F00221A6081F31088F3
:1011CC00F1E7BFF35F8F3200F7E7A047EBE7C046CC
:1011DC00280100D000400540E52A00208C2A002080
:1011EC0014270020D03F054010B5034B0100180018
:1011FC00024AFFF724FC10BDA32A0020A0240020E3
:10120C00034B596A0A00986A596A8A42FAD17047A4
:10121C0000400540F0B5040085B00D00EFF31087D9
:10122C0072B61E4E3368002BFCD0BFF35F8F1C4B85
:10123C0001931C4B0293A3000393002D1CD02000A0
:10124C00FFF7AEFC019B83420BD019002000FFF787
:10125C00AFFC01212000FFF79BFC0123A340124AA5
:10126C001360029B039A9D50BFF35F8F0023336082
:10127C0087F3108805B0F0BD0121A140029BA200AC
:10128C009D500A4B20001A788A4301991A70FFF777
:10129C00AFFC29002000FFF77BFCE5E7280100D01C
:1012AC00110F00201427002038600540E52A00208B
:1012BC00F0B587B01E0004000392FFF7A1FF8E4229
:1012CC0003D848D1039B834245D9EFF31083059390
:1012DC0072B6224B1B68002BFBD0BFF35F8F01252E
:1012EC00A5401F4B1F4F02931B7801932B43DBB27E
:1012FC000493049A029B1A70039A231D9B007D632E
:10130C00DA51194BA200D6503B6A2B420AD100206D
:10131C00BFF35F8F0023114A1360059B83F3108882
:10132C0007B0F0BDFFF76CFF8E42F0D802D1039BE3
:10133C008342ECD8049B019A93420AD01F231C4091
:10134C001E3BA340094A3D627D631360029B019AD8
:10135C001A700120DCE70120E2E7C046280100D02A
:10136C00E52A0020004005408C2A002080E200E0A5
:10137C0010B5EFF3108472B60A490B68002BFCD041
:10138C00BFF35F8F01238340074A0848136202783A
:10139C009A430270BFF35F8F00230B6084F31088B5
:1013AC0010BDC046280100D000400540E52A0020B1
:1013BC00032330B51C0053434C43033BC318033C7D
:1013CC009970015D0519002900D059702A7030BD43
:1013DC0070B506000D00140000290CD0002A09D0AD
:1013EC00436880689847002807D02200290030689D
:1013FC00FFF7DEFF2C00200070BD2A0021003068B2
:10140C00FFF7D6FFF7E70122002330B5047B827388
:10141C0043730268C47303200133DDB2AC4205D8B8
:10142C00002360431218033A537030BD0100594336
:10143C005118033901354D70EEE710B50173426058
:10144C008360FFF7E0FF10BD70B5040000291DD0CC
:10145C000568032003004B43033BEB185A78002A22
:10146C0014D00026504303382818457846705E7017
:10147C002000FFF7ADFF290006002000FFF7E4FF76
:10148C00310002002000FFF7A3FF0100080070BD2F
:10149C00F7B503273E004E430368033E0D00995DEC
:1014AC0004000192FFF7D0FF019B002B08D0E27BD8
:1014BC00002A04D057432368DF19033F7D70E5737E
:1014CC002268002805D0032300214343D318033B93
:1014DC009970002392195370FEBD70B5457B0A00BC
:1014EC0029000400FFF7D4FF6073280070BD70B5AD
:1014FC000400081E07D0637B8B4205D1012120001C
:10150C00FFF7EBFF012070BD032633004B4325682A
:10151C00033BEB189A78101EF5D07243033AA818C7
:10152C00AA5C8A4211D15A780270002220009A706B
:10153C005A700132FFF7ACFF617B02002000FFF70D
:10154C0047FF6073DEE7002AEFD07243033AA81816
:10155C0042788A42F7D15A784270E6E710B5040017
:10156C00FFF7DAFA01002000FFF758FCFF23237184
:10157C00BFF35F8F10BD10B50400FFF7CDFA01006B
:10158C002000FFF74BFCFF23A380BFF35F8F10BD40
:10159C0070B5060006200C0000F0F6F92100C00022
:1015AC0000F00CFB0124C50907D00E4B9D4215D849
:1015BC007F23184000192C004508802300227462F8
:1015CC009B01B5622C3633431A60062000F0DCF91F
:1015DC00A1014919800000F0F1FA70BD0025024C00
:1015EC00EBE7C046FEFF0000FFFF000070B50400F3
:1015FC0006200D0000F0C8F900282ED0194B9C4293
:10160C002CD08023DB03184A18491360184A136046
:10161C0018008A689043FBD1164B174AE3185942BD
:10162C004B4180215B004900995220002900FFF7B3
:10163C00AFFF6023E26A210053406E2213408022E8
:10164C002C3152010A4313600C4B1022236380236C
:10165C009B010B431A600323A36470BD80231B04FE
:10166C00D1E7C0460080034000E0004000C00040CD
:10167C0000F000400080FCBF9E2A00200103000007
:10168C0030B51025064A946A83692B4205D0936ABB
:10169C001B1B8B42F8D9002030BD0120FCE7C04653
:1016AC0000400540234B244A70B51A60234E244B4E
:1016BC00244C33601900A2689143FBD1224D234B7B
:1016CC009D4224D300F0E6F8214B3360A368DB0184
:1016DC008033FBD140221F4B1F489A675A671A6709
:1016EC00DA661E4B984215D31D4C1E4DC022A968BC
:1016FC00200000F037FDAC60FFF700FAFFF77CFB31
:10170C00FFF704FD184C194B9C420FD370BD08CD4C
:10171C009847D4E7040003680834002B03D0FFF784
:10172C002AFF2000DDE7FFF719FFFAE708CC9847FE
:10173C00E9E7C04600E00040BFCDFBFE00F00040F2
:10174C00FE7F3C0000C00040F82500200826002049
:10175C00FFFFFF0100F00140F0250020F8250020DC
:10176C000000002000ED00E00826002010260020DC
:10177C0000BEFDE70FB407B5074800F0BBFD049BA6
:10178C00002B07D005A91800019100F0D1F90348EE
:10179C0000F0B0FD00BEFDE7C2240020D0240020E4
:1017AC0010B50148FFF7E6FFD2240020F0B585B054
:1017BC0001920A9A05000F0000209A4263D80C246B
:1017CC001A0E1B02039202930A9A030003990298C1
:1017DC0000F036FA6C432D4B0600E4186368834224
:1017EC0000D260602B1FDBB20093C023009A9B01D8
:1017FC002343012A1BD8012F19D103221A60A36895
:10180C003B42FCD0019A236852015A40E0231A4013
:10181C0080235B0123431A60032122687A400A402B
:10182C001A600123BB40A2681342FCD01AE080224C
:10183C0012011A60164BAA00D158002905D058691C
:10184C0000F0BCF901300138FDD1019A2368520136
:10185C005A40E0231A4080235B0123431A60009A0C
:10186C00012AD9D9802380229B01234312011A60BB
:10187C000298666032000023039900F0E1F9044CF1
:10188C00AD006051012005B0F0BDC04600800040A5
:10189C002428002073B50C2000F0CAF8FFF726F9B5
:1018AC0000280AD000232C4A2C48990001335050B0
:1018BC000A2BFAD12A4B536273BD2A4DA86700F04C
:1018CC001DF90122284B1A606B6C012BFCD10322F1
:1018DC00264B1A60AC6B012CFCD10225052621008D
:1018EC0000950623224A234800F054F833002100C7
:1018FC00214A2248009600F04DF8214B2900214D39
:10190C00009300220420FFF751FF2B00210000223E
:10191C0030000095FFF74AFF0022104C1100230005
:10192C0000940720FFF742FF0022230011000094CF
:10193C000820FFF73BFF0022094B11000093092000
:10194C002300FFF733FF00222B0011000095062027
:10195C00FFF72CFFB0E7C04624280020006CDC0207
:10196C001BB70000008000403CB0004030B000408D
:10197C00002F685900800240008C864700C002404E
:10198C00001BB70040597307014B8000C0587047CB
:10199C0024280020F8B504000C2017001E000D00B0
:1019AC0000F00CF91D494143380000F007F9069A84
:1019BC003304120313432268002A0FDA3F212268F2
:1019CC000A40AA420AD1A2681205120D824205D120
:1019DC00EE21E268C9020A409A421BD0104A944296
:1019EC0019D0802252010F490F4E0A600F490A602C
:1019FC001700B1688F43FBD1C022211D92010A430D
:101A0C0021212560A060116021680029FCDAE360C7
:101A1C0008231360F8BD80229201E4E740420F00D6
:101A2C0000C0024000E0004000C0004000F0004058
:101A3C008023024A9B000343D36270470080054019
:101A4C00024B1A68024B5A607047C0465828002057
:101A5C000080054003008020114AC00510B5114CD0
:101A6C00106011480460E020104CC004002906D01E
:101A7C002060002B05D180231B06236010BD106055
:101A8C00F7E7FA20C00058438023094A5B049842C8
:101A9C0000D308481060FFF7D3FF8023DB05ECE789
:101AAC0000B00540FCFF01000820014000A00540EB
:101ABC0058280020FFFFFF0070B5040010008022A2
:101ACC000A4BD2051A600A4B002C0CD00125094A8E
:101ADC002C43DA61084A62401A6259629C62002106
:101AEC00FFF7B8FF70BDDC61F9E7C04600B00540F8
:101AFC0000800540D3C007B02D3FF84FAA22064BFB
:101B0C0012011A602F220549DA60054A11605A68E1
:101B1C00002AFCDA7047C0460040024000B0FA00D0
:101B2C000060024010B5002801D000F0C9FB10BDC8
:101B3C0030B50A4B85B01C68002C0AD00122084D28
:101B4C00030000912800524203A9A047012005B0D0
:101B5C0030BD00F0CFFB2000F9E7C0465428002030
:101B6C00F518002001480421014B1847D02500200E
:101B7C0065190020142310B50100188804331B8844
:101B8C00984710BD162310B50100188802331B8826
:101B9C00984710BDF8B50E00040000270125B74288
:101BAC0001D12800F8BD2068FFF7E4FF01C4431EF3
:101BBC009841404205400137F1E70000114A936F0C
:101BCC009B0813D210665166002905D0FFE7FFE78A
:101BDC00FFE7516F106F704704B5002801D000204B
:101BEC00C04300F0C9FB002104BDC046F0B5146E23
:101BFC00556E576F166FFFF7E5FF146655665767FE
:101C0C001667F0BD000000D094464E4A926F9208C1
:101C1C00624601D230E0C046F0B54A4EB56F6D0851
:101C2C00FCD3346E756E776F366F00F025F89446E2
:101C3C00444A14665566576716676246F0BDC0463F
:101C4C009446404A926F9208624601D258E0C046D0
:101C5C00F0B53C4EB56F6D08FCD3346E756E776F76
:101C6C00366F00F04DF89446364A14665566576741
:101C7C0016676246F0BDC046002B24DB11D000294C
:101C8C003EDA00B5C943404200D1013100F038F8CA
:101C9C00C943404200D10131DB43524200D10133F0
:101CAC0000BD002AEBD1002801D1002905D000206D
:101CBC00C90FC90701D1C043410800B500F05CFB56
:101CCC000022002300BD00B500290ADBDB43524291
:101CDC0000D1013300F014F8C943404200D1013166
:101CEC0000BDC943404200D10131DB43524200D117
:101CFC00013300F005F8DB43524200D1013300BD43
:101D0C00002923D1002B18D1002A0CD0BC460D4F32
:101D1C0038667A6600210023FFE7FFE7FFE77A6F5A
:101D2C00386F67467047002801D00748010000B59E
:101D3C0000F022FB0022002300BD02000B0000205B
:101D4C0000217047000000D0FFFFFFFF002B00D0E8
:101D5C00BFE0130C28D1002AE7D080B4114F3966AC
:101D6C007A66FFE7FFE730B4040C7B6F396F1B0416
:101D7C0023433B667A66FFE7FFE7FFE7C04684B282
:101D8C007B6F3D6F1B0423433B667A66FFE7FFE7DF
:101D9C00C04600232C042D0C7A6F386F0019694152
:101DAC00B0BC7047000000D0F0B594460025140E6E
:101DBC0001D112020835140F01D112010435940F10
:101DCC0001D192000235D40F01D152000135D40B50
:101DDC000134254F7C66254C3C660E0C93B2FFE714
:101DEC00FFE7FFE73C6F6643360C7703BE46734351
:101DFC00DF0B5B04C01AB941130C7343DB18C91A0F
:101E0C00CE086643360CB64493B273431F0F1B01C6
:101E1C00C01AB941130C73431F0B1B05C01AB941EF
:101E2C00860D8F023E436643360C092D24DB520A85
:101E3C007243801A7703460A6643360C16235B1BE3
:101E4C00DE40DF40BF1964466643821B7046043592
:101E5C0006330100D940A840C01900D30131A24279
:101E6C0006D20023F0BD0000000000D0FFFFFFFFF2
:101E7C00121B0130F3D3F1E709277F1BFE406446A8
:101E8C00A2B27243801A00D20139220C7243130C95
:101E9C001204821A99410B00704604351337010065
:101EAC00F940A840801900D30131002B02D1A24285
:101EBC000AD2F0BD013000D30131121BFAD2013B22
:101ECC00F8D1A24200D2F0BD013000D30131121B77
:101EDC00F7E7F0B51C0C00D080E00CB400251C0A10
:101EEC0004D11B02160E3343120208351C0B04D10D
:101EFC001B01160F3343120104359C0B04D19B00BC
:101F0C00960F334392000235DC0B02D192185B41E1
:101F1C0001351C00971864410134464F7C66464CD1
:101F2C003C660E0CFFE7FFE7FFE7C0463C6F6643DD
:101F3C00360C7703BE4697B27743C01B00D20139EB
:101F4C00C01B00D201399FB27743C91BC91B170CA8
:101F5C0077437E04FF0B801BB941CE086643360CD9
:101F6C000C2D33DBB644120B1F053A431B0B97B2F7
:101F7C007743C01B00D201399FB27743C91B170CA2
:101F8C0077433E043F0C801BB941860D8F023E43C4
:101F9C00664329277F1BFE400C3D7746AF40BF1997
:101FAC0030BCA2B2ABB272437343801A9941220C7B
:101FBC007243130C1204801A994102000B00013772
:101FCC00001BA941F9D2781E0021F0BD0C277F1B04
:101FDC00FE4077467F0BAF40FF19E0E700245D1C05
:101FEC0007D0144F7D663966FFE7FFE7FFE7FFE791
:101FFC003C6F95B29EB265436643401BB141150CD4
:10200C001E0C6543664336042F0C3E432D04401BC7
:10201C00B141994204D202000B0020000021F0BD16
:10202C0001D19042F7D3801A994101349942F2D3ED
:10203C00F6E70000000000D0FFFFFFFF132370B590
:10204C001C780F4D012C0ED100230E499A00013340
:10205C00A950202BFAD10B4BAB640B48FFF78AFD30
:10206C000A4B186070BD012CF5DD0948FFF78AFD9D
:10207C0080220100280000F075F8022CEDD1EAE76F
:10208C0084280020651E00204C3300008429002089
:10209C005344000007B5604601880A0A0230DF2A63
:1020AC00FAD1C9B2820804D30288408800041043D4
:1020BC0000E00068014A5050039007BD84280020BE
:1020CC00132310B510481C78FFF75CFD0100012CA0
:1020DC0013D10E4C5422200000F044F815230C4A66
:1020EC00990001336250202BFAD12262E261094837
:1020FC00FFF740FD084B186010BD012CF7DD802266
:10210C00024800F02FF8F2E753460000882900201F
:10211C00ED1E00204C3300008429002007B56046DA
:10212C0001880A0A0230DF2AFAD1C9B2820804D324
:10213C00028840880004104300E00068014A5050B7
:10214C00039007BD8829002001480421014B184742
:10215C00E025002065190020014B1B681847000082
:10216C00E0250020014B5B6818470000E0250020AB
:10217C00030010B5080011001B68984710BD000043
:10218C00F7B5437C06000F001400002B12D1036836
:10219C00110038009847F7BD7A5D01950A2A1BD1CA
:1021AC005A5D0D2A18D085420FDD291A336838186C
:1021BC0098470AE0002AEEDD00253B7828000A2B20
:1021CC0009D1337CAB4206D101950C48022133680E
:1021DC009847280001307B1E0135AC42DCDC844280
:1021EC0003DD211A3368381898473C19013C2378D1
:1021FC000D3B5A4253413374CDE7C0463A2500207B
:10220C00D02337B5094D1B06280001A91C6800F026
:10221C0030F9002801D001203EBD019B64B29C42E4
:10222C00FAD0280000F004F9F5E7C046F0250020AC
:10223C0010B5024800F03FF910BDC046F025002053
:10224C00F0B585B006000D001C000092FFF7D8FF1A
:10225C0001906B1C03D1300000F0B2F80500144F54
:10226C00002C00D0134F144B1C68002C06D1019B82
:10227C00002B01D0FFF7DCFF05B0F0BD2368002B6D
:10228C0013D00E4B1B68002B01D09C420DD12A00A1
:10229C0031002000B847009B002B06D002ABD91DA3
:1022AC000A23012220000B70B847E468DDE7C04622
:1022BC00511F0020411F00204C28002050280020D6
:1022CC0013B56B460400D81D002301211A000470BD
:1022DC00FFF7B6FF200016BD054B10B51C68002C8F
:1022EC0000D110BD6368002B00D09847E468F6E776
:1022FC004C28002070B5050000F062F804000100C5
:10230C00002328000122FFF79BFFFFF7E5FF2000C9
:10231C0070BD000010B5034B01001800FEF7D5FB93
:10232C0010BDC0469C2A002013B5054B054C01007E
:10233C00009300220B232000FEF79EFB16BDC04627
:10234C003C2500209C2A002010B50520FFF71CFB23
:10235C00014B186010BDC0461027002010B5FFF7C8
:10236C00F3FF10BD02B471464908490009564900F3
:10237C008E4402BC7047C0467047C04630B5032A35
:10238C0019D903000B43551E9B0710D0002303E003
:10239C005A1C9D4212D01300C25CCC5CA242F7D0F6
:1023AC00101B0CE0043A04300431032A03D90468EE
:1023BC000B689C42F6D0551E002AE7D1002030BD98
:1023CC0010B583070AD00300032102E001330B424E
:1023DC0005D01A78002AF9D1181A10BD0300196813
:1023EC000C4A0D4C8A188A4322420FD15968094A6B
:1023FC0004338A188A43224208D15968054A0433A7
:10240C008A188A432242F1D000E001331A78002A5C
:10241C00FBD1E1E7FFFEFEFE80808080F8B5C04670
:10242C0001B40248844601BC604700BF730200102F
:10243C00D02330B5002400211B061C570568EFF390
:10244C00108372B62A68002AFCD0BFF35F8F05791F
:10245C0002687F2D06D90471BFF35F8F116083F37F
:10246C00108830BDBFF35F8F116083F3108820BFDD
:10247C00E4E7030010B50068EFF3108472B602684D
:10248C00002AFCD0BFF35F8F04229A56002A0CDA84
:10249C00D0220120120612681A711B68BFF35F8FDD
:1024AC0000221A6084F3108810BD002901D100208D
:1024BC00F3E70A60FBE70168EFF3108372B60A6872
:1024CC00002AFCD0BFF35F8FFF2202710268BFF3BA
:1024DC005F8F0021116083F3108840BF70470000AC
:1024EC00084A10B51378002B0AD1802306480749F7
:1024FC005B051C68C45004338B42FAD10123137062
:10250C0010BDC046A22A0020242700100001001094
:10251C0010B5014B984710BD252700208023F0B53E
:10252C00421807000C0085B09B039A4201D9FFF7B3
:10253C0037F91426182530882B88124998472B8890
:10254C0003901149308898472B8802900F493088A6
:10255C0098472B880E490190308898470500FFF763
:10256C00BFFF039B9847029B984780222100D823EA
:10257C0038005202019CA047A847FFF7C9FF05B0DD
:10258C00F0BDC046494600004558000052450000C9
:10259C00464300008023F0B5170085B08218040074
:1025AC0003919B039A4201D9FFF7FAF814261825D8
:1025BC0030882B88104998472B8802900F49308817
:1025CC0098472B8801900E49308898472B880D49E5
:1025DC000090308898470500FFF782FF029B9847D0
:1025EC00019B98473A0020000399009B9847A84705
:1025FC00FFF78EFF05B0F0BD4946000045580000BE
:10260C00525000004643000053594E430000000056
:10261C000000000000000000110100205245414460
:10262C00020000000000000019010020A10200209F
:10263C004353554D020000000100000039010020F9
:10264C0065040020435243430200000001000000D7
:10265C005D0100205104002045524153020000004E
:10266C000000000000000000650200205752495491
:10267C000200000001000000650100202D04002074
:10268C005345414C03000000000000000000000016
:10269C00BD030020474F474F010000000000000021
:1026AC0000000000A5010020494E464F000000002C
:1026BC000500000000000000F1010020424F4F54C3
:1026CC000100000000000000190200202902002077
:1026DC00486172647761726520616C61726D20254E
:1026EC006420616C726561647920636C61696D65ED
:1026FC0064000A2A2A2A2050414E4943202A2A2AB9
:10270C000A004861726420617373657274005265CB
:10271C006C6561736500626F6F74325F773235710F
:10272C0030383000312E342E30007069636F006207
:10273C006F6F746C6F61646572004170722032351A
:10274C0020323032330006005250D3F07542DE2472
:10275C00002006005250E182887FE624002006000B
:10276C005250BBFF3CB6FA2400200D0A4E6F204499
:10277C004D41206368616E6E656C732061726520DB
:10278C00617661696C61626C65000000011000008B
:10279C00000000000000010000000000000000002C
:1027AC000000020000000000000000000000030018
:1027BC0000000000000000000000FF00000000000E
:1027CC0000B5486801318E4600477046093801490A
:1027DC00884700BD250B0020C0250020000000000C
:1027EC0010260020A42A0020000000000000000099
:1027FC00B42A0020000000000000000010000000BF
:10280C00503300004C3300005433000052330000AE
:10281C004D5300004D43000053340000433400007E
:10282C000000000000000000191F002035190020D6
:10283C000D1E0020911E0020ED0000202D210020F7
:04000005100001E9FD
:00000001FF
